:020000040800F2
:1000000000800120210300086B4700082D470008ED
:1000100069470008552E00086361000800000000D1
:100020000000000000000000000000007B47000806
:100030009D2E000800000000794700084149000893
:100040003B0300083B0300083B0300083B03000898
:100050003B0300083B0300083B0300083B03000888
:100060003B0300083B0300083B0300083B03000878
:100070003B0300083B0300083B0300083B03000868
:100080003B0300083B0300083B030008000000009E
:100090000000000000000000000000003B0300081A
:1000A0003B0300083B0300083B0300083B03000838
:1000B0003B0300083B0300083B0300083B03000828
:1000C0003B0300083B0300083B0300083B03000818
:1000D0003B0300083B0300083B030008000000004E
:1000E0003B0300083B0300083B030008000000003E
:1000F0000000000000000000000000003B030008BA
:10010000000000003B0300083B0300083B0300081D
:1001100000000000000000000000000000000000DF
:100120003B0300083B0300083B0300083B030008B7
:100130003B03000800000000000000000000000079
:100140000000000000000000000000006D470008F3
:100150003B0300083B0300083B0300083B03000887
:100160003B0300083B030008000000000000000003
:10017000000000000000000000000000000000007F
:10018000000000003B030008000000000000000029
:100190003B03000800F002F800F0B8F80AA090E86D
:1001A000000C82448344AAF10107DA4501D100F032
:1001B000ADF8AFF2090EBAE80F0013F0010F18BF47
:1001C000FB1A43F001031847B8C20000D8C2000070
:1001D0000A444FF0000C10F8013B13F0070408BF6D
:1001E00010F8014B1D1108BF10F8015B641E05D00B
:1001F00010F8016B641E01F8016BF9D113F0080FC0
:100200001EBF10F8014BAD1C0C1B09D16D1E58BF51
:1002100001F801CBFAD505E014F8016B01F8016B88
:100220006D1EF9D59142D6D37047000000230024FB
:1002300000250026103A28BF78C1FBD8520728BFF6
:1002400030C148BF0B6070476E2900F07C86702972
:1002500000F08B8166290AF0CB8665290AF0C886F2
:1002600067290AF0C58661290AF0C48603681B0A5B
:1002700028BF41F08001692900F0FC80642900F06A
:10028000F980752900F0F6806F2900F05F877829E2
:1002900000F05781E92900F0F986E42900F0F6869C
:1002A000F52900F0F386EF2900F05C87F82900F0CB
:1002B00056810368DB0928BF41F08001632901F002
:1002C0006986732901F06E86E32901F07986F329A6
:1002D00001F07E86002070471FB50AF084FE9DE87D
:1002E000030000F03FFD02F0D3F8040000200021DD
:1002F0000AF028FE401C6060002000210AF00CFE7D
:10030000E06001F085F900F0FBFC1FBD09F002FB85
:100310001146FFF7E1FF02F090FD09F001FD00003A
:100320000648804706480047FEE7FEE7FEE7FEE78F
:10033000FEE7FEE7FEE7FEE7FEE7FEE7D549000839
:100340009501000870B5064600F0ECFC056806F162
:100350000B0020F00704B4429CBF002070BD2B4668
:100360006A68BAB11068A04210D304F1080188424B
:100370003CBF5068586007D351681019416011683C
:10038000091B016058601460101D70BD134652684F
:10039000002AE7D12146284600F0D0FC0028DED113
:1003A00070BD70B50446051F00F0BCFC0068002C51
:1003B00014BF446870BD002C18BFAC423CBF20463F
:1003C0006468F8D301680A18AA4218BF456003D1CF
:1003D0002A6805461144016028684119A1421CBFE2
:1003E0006C6070BD6168696021680844286070BDF8
:1003F000B2F120030AD5C2F1200301FA02F120FA7A
:1004000003F300FA02F041EA0301704700FA03F136
:100410004FF00000704700001CB50C46064B7B44B3
:1004200069460090204600F0A8FD04460020694679
:1004300000F0B6FD20461CBD7F0B00000B460146B8
:10044000184600F0B3BD00000FB41CB5084B06AA57
:100450007B4469460090059800F08FFD044600201B
:10046000694600F09DFD20461CBC5DF814FB0000B1
:100470004D0B00002DE9F041064600241068752957
:10048000314616A510D000F0CAFC002802DA40421E
:1004900013A507E031688A0701D512A502E04907D4
:1004A00004D511A5012401E000F0C2FC00210A22BC
:1004B00006F1240709E0B0FBF2FCB0FBF2F302FB0B
:1004C0001C00303078541846491C0028F3D12346CC
:1004D0002A463046BDE8F04100F0DCBC00000000D8
:1004E0002D0000002B00000020000000F0B40D469D
:1004F0000188090502D5214C7C4402E01F4C7C4454
:100500000E34002100F1240608E002F00F07120962
:10051000E75D42EA03721B097754491C52EA03075C
:10052000F3D102780023120704D5702D06D009B14B
:10053000022311342246F0BC00F0ACBC012310347D
:10054000F8E770B504460D462146106800F070FCCF
:10055000024629462046BDE870400023C6E7D21D6A
:1005600022F00703D3E90023C0E70368126843F0D1
:10057000200303600823C3610023B7E7B0BC000079
:100580002DE9F05F894604464FF0000ADFF874B1A8
:10059000FB44C0F820A02046E1688847002874D0BA
:1005A000252806D0D4E901219047206A401C20620A
:1005B000F1E700265F462046E16888472028054687
:1005C00007DB312D05D2781910F8200C08B106434D
:1005D000F1E7B00701D526F00406C4F81CA00027F7
:1005E000C4F818A02A2D09D0284609F09BF938B381
:1005F00004EB8708303DC8F8185019E059F8041B7F
:10060000204604EB87029161E1688847012F054687
:1006100018D1E069002820DA26F020061DE0D8F87D
:10062000180000EB800005EB40003038C8F81800D7
:100630002046E1688847054609F074F90028EED1A4
:10064000012F0AD02E2D08D12046E16888477F1C53
:100650000546022F46F02006C4DBA069002803DA15
:10066000404246F00106A061F00701D026F01006D6
:100670006C2D0BD0682D09D04C2D39D06A2D35D07A
:10068000742D35D07A2D33D016E038E0E1682F464E
:1006900020468847B842054609D16C2F26D04FF432
:1006A0008060E168064320468847054604E06C2FD9
:1006B0001AD04FF4807006430DB3A5F141001928FC
:1006C00002D8203546F400664A4629462046266070
:1006D0004E46FFF7B9FD80B101280BD0F61D26F07C
:1006E000070000F1080956E74020E4E78020D8E73A
:1006F0000020D6E706F104094DE7284652E7206AB4
:10070000BDE8F09F40BC00000FB400B58DB010A94B
:10071000099000910B904FF0FF300A9000200C9050
:10072000064878440690064878446A4607900F9930
:1007300009A800F035FD0DB05DF814FB9B0A000020
:10074000B30A00002DE9FF5F1D464FF0FF3B9146C5
:100750004FF000085F46D5E90146A96901987F1C62
:100760008847296A824688470028F6D1BAF1FF3FB8
:100770000CD0002E24F4C06419DD600614D5BAF143
:100780002B0F09D0BAF12D0F0ED103E0584604B05B
:10079000BDE8F09F44F48064A96901987F1C8847F4
:1007A000761E8246002E02DDBAF1300F03D0B9F179
:1007B000000F26D032E0A969761E01987F1C44F410
:1007C00000748847002E824605DDBAF1780F06D006
:1007D000BAF1580F03D0B9F1000F10D01EE0B9F1F3
:1007E000000F02D0B9F1100F18D1A969761E019837
:1007F0007F1C24F4007488478246102002E0082001
:1008000000E00A20814609E0A96908FB0908761E74
:1008100001987F1C44F4007488478246002E05DD51
:100820004946504600F0A8FC0028EDDAE969019835
:100830008847A00502D46FF00100A8E7E00725D1A2
:10084000600613D5600502D5C8F1000000E04046FF
:1008500029680A1D2A600968220501D5087015E07B
:10086000220701D5088011E008600FE02868011D0B
:1008700029600068210502D580F8008006E0210784
:1008800002D5A0F8008001E0C0F8008038467EE77D
:1008900070B50446C068810713D0800601D5A56AEB
:1008A00004E0A169606808442169451A204600F007
:1008B0006BFE002206462946204600F091FD304698
:1008C00070BD002070BD70B510B1BDE87040DFE7AD
:1008D0000025074C6E1E07E02046FFF7D9FF00B148
:1008E0003546206D20F00104002CF5D1284670BD5E
:1008F000BC8500202DE9F0410C46074616461046FF
:1009000000F078F82078611C61280AD0722802D0A3
:1009100077283CD102E00125002405E002250424CB
:1009200002E0082448F2020511F8010B2B2806D03A
:10093000622809D011F8010C74280AD00BE045F0A8
:10094000030544F00204EFE745F0040544F0010418
:10095000EAE744F010043846214609F029F8411C22
:1009600015D00021316171604FF40071F560F161C3
:100970007061200704D530460222002100F030FDCE
:10098000306D40F0010030653046BDE8F081002058
:10099000FBE72DE9F0410D460646104C206DC107DE
:1009A00004D0410804D020F00104F7E722460EE00D
:1009B0005420FFF7C7FC07000ED0206D47F001015F
:1009C000084354212065384600F032F93A4629465A
:1009D0003046BDE8F0418DE70020D6E7BC85002019
:1009E00011B14FF4807201E04FF480624FF4007354
:1009F00000F072BD2DE9F04704464FF000094FF0BA
:100A0000FF37C568D4E90486A80707D0204600F060
:100A1000BBFD304608F08EFF002802DA3846BDE8FC
:100A2000F087280502D54046FFF7BBFC4C21204645
:100A300000F0FEF8206D20F0010020654846EEE74A
:100A40002DE9F041074615460E461020FFF77AFCC7
:100A500004000AD06760C4E9026500F067F9016824
:100A6000216004600020BDE8F0810120FBE710B5A3
:100A7000431C02E010F8011B71B18107FAD14FF05D
:100A8000013202C88C1A8C4314EAC211F9D0C01A80
:100A90000A0603D0C01E10BDC01A10BD0A0401D042
:100AA000801E10BD0902FCD0401E10BD40EA0103AB
:100AB00070B59B072ED14FF00136042A2AD308C8FF
:100AC00010C99D1B9D43121F15EAC61517D0D8B239
:100AD000E1B2401A50EA056110D198B2A1B2401AB1
:100AE00050EA05410AD123F07F4024F07F41401AAB
:100AF00050EA052102D1180EA0EB146070BDA3428C
:100B0000DBD018BA21BA884201D9012070BD4FF05C
:100B1000FF3070BD0AB9002070BD10F8013B11F81C
:100B2000014B63B1A3420AD1521E08D010F8013B19
:100B300011F8014B1BB1A34201D1521EEDD1181B7C
:100B400070BD032A40F2308010F0030C00F01580D5
:100B500011F8013BBCF1020F624498BF11F801CBC0
:100B600000F8013B38BF11F8013BA2F1040298BF25
:100B700000F801CB38BF00F8013B11F0030300F08F
:100B80002580083AC0F0088051F8043B083A51F833
:100B900004CBA0E80810F5E7121D5CBF51F8043B38
:100BA00040F8043BAFF30080D20724BF11F8013BAB
:100BB00011F801CB48BF11F8012B24BF00F8013B0D
:100BC00000F801CB48BF00F8012B704710B5203A60
:100BD000C0F00B80B1E81850203AA0E81850B1E8F6
:100BE0001850A0E81850BFF4F5AF5FEA027C24BFAC
:100BF000B1E81850A0E8185044BF18C918C0BDE8A3
:100C000010405FEA827C24BF51F8043B40F8043B6B
:100C100008BF7047D20728BF31F8023B48BF11F820
:100C2000012B28BF20F8023B48BF00F8012B70477A
:100C30004FF0000200B5134694469646203922BF75
:100C4000A0E80C50A0E80C50B1F12001BFF4F7AFC0
:100C5000090728BFA0E80C5048BF0CC05DF804EBA2
:100C6000890028BF40F8042B08BF704748BF20F810
:100C7000022B11F0804F18BF00F8012B70470000C5
:100C80004FF0013C50F8042B51F8043B9A4221D11B
:100C9000A2EB0C03934313EACC1317D150F8042BA7
:100CA00051F8043B9A4215D1A2EB0C03934313EA8B
:100CB000CC130BD150F8042B51F8043B9A4209D1C4
:100CC000A2EB0C03934313EACC13DBD04FF00000EC
:100CD000704700BFD01A01BAB1FA81F101F01801D2
:100CE00022FA01F0CB40C1F12001DBB2C0B2C01A40
:100CF0002CFA01F3D11A914311EAC311E6D17047DE
:100D000070B5064C7C44064D7D4403E020682044C9
:100D10008047241DAC42F9D170BD0000C4B800006A
:100D2000CCB8000000487047B886002000487047E3
:100D3000BC860020704770477047704738B504463E
:100D40000A460020694601F078FB002808BF38BD3C
:100D500002460099204600F01FFD012038BD012009
:100D600001F041BBF8B501F05DFB054600200C46E3
:100D7000102000BF0646A819A0420DD93246694688
:100D8000002001F05AFB070008BF01F02CFB00987F
:100D9000A04218BF0546C419FFF7C4FF0560074607
:100DA000F01D20F007004619284600F00AF8B4426A
:100DB00008BFF8BDA21B31463868BDE8F84000F016
:100DC000EBBC00210160C0E90110704710207047A2
:100DD00070B5044685690068C10601D5302600E07B
:100DE0002026C00707D070BDD4E9012130469047C6
:100DF000206A401C20626D1EF6D570BD70B5044699
:100E000085690078C00707D170BDD4E90121202091
:100E10009047206A401C20626D1EF6D570BD09689F
:100E20004A0501D540B27047C905FCD500B27047EC
:100E300009684A0501D5C0B27047C905FCD580B222
:100E4000704770B50C460546012A05D02878800603
:100E500000D5EA69002302E0012305E05B1C934210
:100E600002D2E05C0028F9D1A869E618C01AA8618E
:100E7000286A184428622846FFF7AAFF04E0D5E94B
:100E8000012114F8010B9047B442F8D32846FFF72C
:100E9000B5FF70BD2DE9F0470D46994692460446D0
:100EA00000F124080168880604D5E06921F01001EA
:100EB000216000E00120A84201DD471B00E000277F
:100EC000A1697A1902EB0900081AA0612078C0060E
:100ED00002D42046FFF77CFF002608E0D4E9012178
:100EE0001AF806009047206A401C761C20624E4586
:100EF000F4DB2078C0060AD52046FFF769FF06E03C
:100F0000D4E9012130209047206A401C2062381E1D
:100F1000A7F10107F4DC07E0D4E9012118F8050086
:100F20009047206A401C2062281EA5F10105F3DCD1
:100F30002046FFF763FF2078000602D50220BDE8B7
:100F4000F0870120FBE711680268006A530501D5AC
:100F500008700AE0D30501D5088006E0130603D522
:100F6000C217C1E9000200E00860012070470000DC
:100F700001694A1C02610878704700B58FB0CDE95D
:100F800001310021059105497944CDE9031011464D
:100F90006846FFF7F5FA0FB000BD0000E5FFFFFF60
:100FA0000A6802F8010B0A6070470000074B70B531
:100FB0000D467B44FFF7E1FF0446284600F020F988
:100FC00010B14FF0FF3070BD204670BD8B8D00001A
:100FD0002DE9FF5F15468A460446DFF8AC80F844E9
:100FE0000027D8E900103E46CDE9001010E03AF89D
:100FF00016106A4602A801F0CAF9411C07D02178F0
:10100000890603D5E269391891420DD80744761C48
:101010002078800602D5E069B84205DDAE42E6DB05
:101020003AF816000028E2D1A069C01BA061204652
:10103000FFF7CEFED8E90010CDE90010002017E040
:101040003AF818106A4602A801F0A1F9B0F1FF3F82
:1010500081460BD000250DF1080B05E0D4E90121F4
:101060001BF8050090476D1C4D45F7D308F10100B2
:10107000B0428046E4DB206A384420622046FFF715
:10108000BDFEBDE8FF9F000006B200002DE9F04163
:101090008046D21D22F007020025D2E90002F52980
:1010A00015A614D0011E72F1000106DA0023D0EB60
:1010B000030063EB020211A608E0D8F800108B07CA
:1010C00001D50FA602E0490701D50EA6012511465C
:1010D000002408F1240704E000F078FB30323A5590
:1010E000641C50EA0102F7D12B46324621464046A5
:1010F000BDE8F041FFF7CEBE000000002D0000006B
:101100002B0000002000000030B4002100F1240476
:1011100008E002F00705D208303542EA4372DB08E6
:101120006554491C52EA0305F3D10468002310A258
:10113000250708D504F020040C4304D0C46901231A
:101140000CA2641EC46130BCFFF7A4BE10B50446F7
:1011500021461068FFF76CFE02462046BDE81040AD
:101160000023D1E7D21D22F00701D1E90023CBE70C
:1011700000000000300000003A2800D2303820F093
:101180002002412A01D3A2F13700884201D34FF057
:10119000FF307047026811441378016018467047A9
:1011A000D1600549794451610449794411620021B3
:1011B0001161114600F010BFEDFFFFFFA90600000E
:1011C000426842B1016811F8013B23B1521EC0E9E7
:1011D0000012184670470121C160881E704742689E
:1011E0005AB1C368016843B983688B4205D0491E70
:1011F000521CC0E90012002070474FF0FF307047CA
:10120000007B00F0800070472DE9F04705460C4652
:10121000C86820F4201040F48000C860800602D521
:10122000084600F0D4F9E06841F282014FF0FF393E
:101230000140022903D0204600F072F9B5E000F425
:101240002041B1F5004F0FD1C00306D56168E06AB7
:10125000884200D80846606006E02069E06260606D
:10126000606908F07DFBA061A0680022EEB2002852
:101270000DDAE1688B050AD4C043A06041F49030D8
:101280002260E0606068411C61600670A5E0E06873
:101290009046226040F40050E060206968BB6069BD
:1012A00008F072FB012704F12405A0B1A08910F415
:1012B000407F08D0E069FFF745F8206118B1E06889
:1012C00040F4006016E0E7612561E06820F44070BA
:1012D00040F480600EE0E069FFF734F800282061F8
:1012E000F1D0E06840F4006010F4407FE06002D18B
:1012F00040F48070E06020696060E06825696FF00C
:10130000010AC1051FD56168E06A884200D8084615
:10131000411B04D02246284600F00CF9F0BBE068DF
:10132000010203D5E562C4E9015854E0691CE16299
:101330006160E16940F48030491EC4E90210304622
:101340002E70BDE8F087010202D500F480320AE079
:101350006068411C61600670E0680A2E40F48030CD
:10136000E06006D00022E16A6068814203D90B4642
:1013700002E00122F7E70346A7895B1B7F0503D440
:10138000E7699F4200DDE2B1814200D80146E56293
:101390000F1AC4E90158002B09DD00E005E02246E0
:1013A0001946284600F0C6F808B14846C9E747B1D3
:1013B000A069E5626560C01BA061E06840F01000B4
:1013C000E060E068000208D56168A069E562491B39
:1013D00008446560A0615046B3E73046B1E70000BD
:1013E0002DE9F041044616460D464769007B80070B
:1013F0002ED0384608F0C8FA50BB3EB3012E02D0BA
:10140000022E25D104E0204600F0A0FF05441DE097
:10141000384608F0A5FAE168002841F01001E160C3
:1014200005DA204600F07CF80120BDE8F081C90310
:101430000BD56268E16A914200D81146A269114455
:101440002269891A814200DD08460544002D01DA2F
:101450000220EAE7E16A6068E268814206D291030D
:10146000E06203D522F4003141F01002A6690027A2
:10147000AE4213DCE16A814201D90B4600E003462B
:1014800003EB060C2369ACEB030CAC4506DD814293
:1014900001D98C4600E084469C4505D1A7602760B1
:1014A00042F02000A5620DE0AD1BE669AE1B814253
:1014B000A66000D90846C01A281A20605819606032
:1014C00022F0200003490840E060002084F84870C2
:1014D000ABE70000BFCFD7FF70B5C468A50713D036
:1014E000650211D4B2F5807F09D0B2F5007F06D035
:1014F000B2F5806F08D1012300F1240106E05D1EE2
:101500006FF07F46B54201D3012070BD0161C36118
:10151000416024F470611143C160002070BD00007F
:10152000C16821F4001141F08001C1600021816097
:10153000016070472DE9F047814614460E464FF092
:10154000FF383248D5685769054209D03846A16945
:1015500008F00AFB002811DB2C48C0430540E56079
:101560002B4632464946384608F012FBA16920F066
:101570000042B21A11440028A16103D02046FFF7AF
:10158000CFFF4046BDE8F08770B504460569C06AE4
:101590006168884200D80846E16821F42011E160C2
:1015A000C90312D5A84208D02246411B2846FFF79E
:1015B000C1FF10B14FF0FF3070BD0020E562C4E9FB
:1015C0000150E06820F48030E060002070BD10B56C
:1015D0000446C06820F02000E060A16AA06988424B
:1015E0000DD02046FFF7D0FFE06820F4405040F0D7
:1015F0001000E060A06AA0612069E062606044F2CF
:101600004001E0688843E06010BD00001000020067
:1016100010B542485421FFF70BFB41485421FFF716
:1016200007FB40485421FFF703FB3F493B483C4A36
:101630003F4B08603D490A603A491960531C0365F5
:10164000481C1065012008653B48344A39A178449C
:10165000FFF750F920B9384878440A3800F0BCFE4A
:1016600037482F4A35A17844FFF744F920B9344868
:1016700078440A3800F0B0FE32482A4A2FA1784454
:10168000FFF738F920B92F4878440A3800F0A4FE53
:1016900040232248DC0000212246FFF71DFF20B135
:1016A00025487844543800F097FE1D4822464023D0
:1016B0000021FFF711FF20B121487844543800F091
:1016C0008BFE1848224610230021FFF705FF002853
:1016D00006D01C487844BDE81040563800F07CBE67
:1016E00010BD104870B5006D20F001040B48FFF7E5
:1016F00081F90B48FFF77EF90A48FFF77BF909E00B
:10170000206D20F001052046FFF774F92046FEF712
:1017100048FE2C46002CF3D170BD0000BC85002093
:101720001086002064860020180400201C0400207D
:101730002004002072000000CA9B00007700000017
:10174000B99B0000A99B00002DE9F0410646FFF778
:10175000EDFA8046454613E016B1E068B0420ED17E
:1017600020682860D4E90101D8F800708847204635
:10177000FEF717FED8F80000B842EBD100E025468E
:101780002C68002CE8D1BDE8F08110B500F032FEE5
:10179000BDE8104000F01BBE034640688C460028A0
:1017A00018BF88423CBF03464068F8D31868184405
:1017B000884207D00CF1030020F00700001D411AF9
:1017C000521A0146081D0A60FEF7EBBD30B5B0F1B4
:1017D0000A024FEA900E71F100034EEA817EB0EBEF
:1017E0000E0061EB91014FEA101E4EEA017E10EBF4
:1017F0000E0041EB11114FEA102E4EEA016E10EB74
:101800000E0041EB11214FEA104E4EEA014E10EB53
:101810000E0041EB1141401841F100014FEAD000A8
:1018200040EA41704FEAD10110EB80054FEA810494
:1018300044EA907444EB01046D1944EB0404521B18
:10184000A3414FF0000348BF0A3200D530BD401C11
:1018500041F1000130BD10B5044600F011FE0068F2
:10186000005D00F0010010BD70472DE9FF4F0C46F0
:101870001E464FF0FF378BB0D2E90001DDF86080E3
:101880000A908A46C1F30A5505B93D46002108462B
:101890004FF00000BAF1000F00F4400005DA00EB51
:1018A00080004FF4400101EA50004FEA9059B9F12D
:1018B000010F00DDB9460A9850EA4A000ED044F6FE
:1018C0001050A5F2FF3545432F14B8F1000F1ED07C
:1018D0007542291E1EDDC9F100021CE0B8F1010F9E
:1018E0004FF0000001D0302103E0F24305E0215425
:1018F000401CB042FBDB30460022002121540B99F2
:10190000C1F80880C1E900200FB0BDE8F08FBD1B11
:101910006D1CDEE74A4600DA694206A800F000FEC8
:1019200006AB93E8070003AB83E8070050460A992B
:1019300000F0C8FE8DE80700A0F500501F380090A9
:101940000398002D09DD42F21F014A46084403A90D
:101950000390684601F027F908E0A0F500504A46D8
:101960001F3803A90390684601F031F98DE807009C
:101970000004000C03D04FF0FF30410800E0104697
:10198000B8F1000F03D00022009215461EE0751E2C
:1019900005D4FFF71BFF303262556D1EF9D5B346F3
:1019A0000122084302D000227F1C04E02078302866
:1019B00001D100227F1E002A099786D01DE0112D3B
:1019C00007DAFFF703FF303262556D1C50EA01025F
:1019D000F5D1084302D00098C8B10EE00021681E7E
:1019E00005E0235C625C63542254401E491C814222
:1019F000F7DBAB46A81B401E0990002004F80B0043
:101A00000B98099AC0F80880C0E9002B7CE71126E2
:101A10004FF0000859E72DE9F04F88460446D21DE3
:101A200022F0070191B0D1E90001CDE90A0107F0E8
:101A3000C6FE02460B98C00F01D02D2007E020689B
:101A4000810701D52B2002E0202101EAC000032AF2
:101A5000099001D0072A05DB03464146204600F0E5
:101A60001FFD0BE12078800601D5E06900E006202B
:101A7000B8F1650F814606D0B8F1660F18D0B8F1FD
:101A8000670F70D131E00020B9F1110F009001DB38
:101A9000112301E009F101030AAA01A90CA8FFF72B
:101AA000E4FEDDE90C70002609F10105834647E0FC
:101AB00001204B4600904FF000470AAA01A90CA84C
:101AC000FFF7D3FEDDE90DB00C995D46002610B995
:101AD00009F101000D18B9EB050003D4C0F1FF3680
:101AE00009F10105A5EB09002BE0B9F1010F01DABD
:101AF0004FF001090020B9F1110F0090484601DDB7
:101B0000112300E003460AAA01A90CA8FFF7ADFEC5
:101B1000DDE90C704D4600268346207800070AD484
:101B2000AB4500DA5D4601A8012D04DD411911F82D
:101B3000011C302907D04F4502DA17F1040F04DAEF
:101B4000012082460FE06D1EEEE7002F02DCED1B48
:101B50003E4403E0781CA84200DD7D1CB81B00F168
:101B6000010A4FF000472078000703D4AA4501DBA3
:101B70004FF0FF3A0021B7F1004F0DF143088DF807
:101B8000431024D002202B23002F01DA7F422D2383
:101B90000A21021EA0F1010000DC5FB197FBF1FCFD
:101BA00097FBF1F201FB1C7C17460CF1300C08F896
:101BB00001CDEEE7A8F1010003702188090501D5E8
:101BC000452100E06521A0F1010800F8011C0998F9
:101BD0000FA9A1EB0807FF1D00B10120411901EB7E
:101BE000EA70A1693844081A401EA0612078C00636
:101BF00002D42046FFF7ECF8099828B1D4E9012176
:101C00009047206A401C20622078C00622D52046DA
:101C1000FFF7DEF81EE0002E04DBB34502DD01A86D
:101C2000805D00E03020D4E901219047206A401C0B
:101C30002062761CAAF101005FEA000A0AD100F0D6
:101C400027FCC0680168405CD4E901219047206A04
:101C5000401C2062281EA5F10105DCDC07E0D4E968
:101C6000012118F8010B9047206A401C2062381EA1
:101C7000A7F10107F3DC2046FFF7C0F8032011B0FD
:101C800043E600002DE9F04F04460D46D21D22F038
:101C9000070089B0D0E900974846394607F08FFD24
:101CA0000246F80F01D02D2307E02068810701D5F7
:101CB0002B2302E0202101EAC0038DF820300BB174
:101CC000012000E00020032A824601D0072A04DB1D
:101CD0002946204600F0E4FB3FE12078800601D44D
:101CE0000D2500E0E569C7F30A560D2D49DA0021FC
:101CF0004FEA175B08464FF00000002F00F4400049
:101D000007DA00EB80004FF4400100EBD07001EAED
:101D100060008115012901DD4FF0FF3100224FEAFB
:101D2000850CBCF1180F06D31346ACF118004FF028
:101D30008052C24003E04FF4801323FA0CF30CF1FD
:101D40000C0CBCF1200F04D3ACF1200C09FA0CF000
:101D500001E007FA0CF000294FF0004801DD18B946
:101D60000FE00ED140450CD319EB02095F4121B9B8
:101D7000404502D19F4329EA0209BBEB175F00D01F
:101D8000761C2088000502D57B48784402E07A481A
:101D90007844193808AA302302F80A30037C0AF183
:101DA0000101002E0AF1020A53546A4602DC4FF088
:101DB000300101E04FF031014FF001088DF80010C3
:101DC00002D0A6F2FF3603E059EA470100D06B4E7D
:101DD000002D02DC2178090704D54FF002082E21DE
:101DE0008DF80110C44600210BE0C7F303433F0107
:101DF000C35C491C6D1E02F80830052908F1010872
:101E000001DA002DF1DC00210CE000EB1973491C14
:101E10001B786D1E082902F808304FEA091908F1ED
:101E2000010801DA002DF0DC21688B0602D516E0EE
:101E3000A8F10108E04505DD02EB080313F8013CB9
:101E4000302BF5D0B8F1000F09DD02EB080313F8D1
:101E5000013C2E2B03D1090701D4A8F10108002D64
:101E600005DD3E2102F808106D1E08F10108407CD6
:101E7000002E02F8080008F1010804DA2D2076424D
:101E800002F8080002E02B2002F808000A214FF4B3
:101E90007A70864208F101080BDB96FBF0F33033D1
:101EA00002F8083096FBF0F308F1010800FB136616
:101EB00001E0642E0CDB642096FBF0F3303302F873
:101EC000083096FBF0F308F1010800FB136601E00F
:101ED0000A2E06DB96FBF1F0303002F8080008F11C
:101EE000010896FBF1F001FB1060303002F80800A9
:101EF000A16908F1010808EB050202EB0A00081AC3
:101F0000A0612078C00602D42046FEF761FF216A56
:101F100008AE01EB0A00206204E0D4E9012116F8C2
:101F2000010B9047BAF1010AF7D22078C00602D51A
:101F30002046FEF74DFF6E4609E016F8010B3E28DD
:101F40000FD0D4E901219047206A401C2062B8F1EB
:101F50000108F2D22046FEF751FF09B00320BDE888
:101F6000F08F206A2844206203E0D4E90121302068
:101F700090476D1EEBD3F8E775A4000002FCFFFF4D
:101F800010B5436913B1AFF3008001E0FEF759FFCC
:101F9000012010BD127800F124010A7000224A705D
:101FA0000122EDE711684FF0FF32E9E710B5436910
:101FB00013B1AFF3008001E0FFF70AF8012010BD74
:101FC000128800F1240182840022C2840122EDE7FC
:101FD00011684FF0FF32E9E72DE9F34F4FF0000AA7
:101FE0000C4656468DB001200C9001F10C000B9070
:101FF00062690B9801219047051E2DD0252D2CD00C
:10200000216A8847C0B162690B9801219047216A13
:1020100088470028F7D16269411E0B98904700E07D
:10202000761CA1690D988847216A88470028F7D156
:10203000E1690D988847DBE7A1690D988847A842B8
:10204000074601D1761CD3E7E1690D9888477F1CCC
:1020500002D1BAF1000F6FD06BE162690B980027D3
:102060003D46394690472A2804D162690B980121E0
:1020700090470125DFF8D08262690B9801219047D3
:10208000A0F130010A290AD24745E5DC07EB8701B8
:1020900000EB4107303FDFD445F01005ECE7E906DF
:1020A00001D46FF000476C280AD04C2814D068285F
:1020B00015D06A280DD074281CD07A281AD01DE0BB
:1020C00062690B98012190476C2802D045F0040505
:1020D00014E045F002050DE045F020050AE06269D4
:1020E0000B9801219047682802D045F0080505E0CB
:1020F00045F4006562690B9801219047C4E90157D6
:1021000065283DD019DC58287AD00CDC452837D01A
:1021100004DC252826D041289ED131E046282FD046
:10212000472899D12CE05B2877D0612828D06328F4
:102130007CD0642823D15AE0F6E06F2848D008DC30
:1021400066281DD067281BD0692821D06E2816D19B
:1021500027E0702845D0732868D0752847D07828A4
:102160000DD14DE0A1690D988847252805463FF41B
:1021700069AFE1690D9888476D1C3FF46AAFD8E0FC
:102180000D9923466A466FF00100AFF30080C5E069
:1021900045F0400023464FF000026060A80736D4A7
:1021A0003EE0E8077FF447AF2068011D216000682A
:1021B000290501D506701BE7290701D5068017E719
:1021C000A90703D5F117C0E9006111E706600FE721
:1021D00045F0400023464FF008026060A80716D47F
:1021E0001EE040F60E0125EA0100606016E045F0B1
:1021F000400023464FF00A026060A80707D40FE0B2
:1022000045F040006060A80708D5234610220D99CC
:102210006FF00100AFF3008080E007E0102223465A
:102220000D996FF00100FEF78DFA77E04FF000098D
:1022300063284F46C8464B46CB4602D05B2806D0A3
:1022400038E0E80601D40120A060012732E062698D
:10225000D4F80CB00B98012190475E2807D14FF0BD
:10226000010949466269D4F80CB00B98904721697E
:1022700039B900210A4603AB43F82120491C08293B
:10228000FADBD8B3216949B308F1010862690B98F8
:10229000012190475D28F4D1B9F1000F09D0002049
:1022A00003A951F82020D24341F82020401C0828DF
:1022B000F7DB03AB2069002820794FEA40701ED07D
:1022C0005B462246CDF80080CDE901970D990028A4
:1022D0006FF0010020DAAFF300801FE0C11703AAFE
:1022E00000EBD1614B1121F01F0102EB8302411A77
:1022F00013680120884003431360C7E719E00D9974
:10230000224600286FF00100009702DAAFF3008048
:1023100004E0AFF3008001E0AFF3008000280ADAA8
:10232000401C06D10C9820B14FF0FF300FB0BDE833
:10233000F08F5046FAE7E90701D10AF1010A064495
:1023400000200C9054E60000CCCCCC0C10B501461B
:10235000C268900703D0900607D5886A0AE000F0AB
:102360009BF801210160881E10BD8B6948681844E4
:102370000B69C01A91F848301BB191F84910401A06
:1023800010BD1103FCD50028FADD401E10BD70B54C
:1023900016460C46054600F073F8036893F80101F1
:1023A000012806D0FF2C0FD8185D68B101202C70D1
:1023B00070BDD3F807013246214603F207130344E8
:1023C0002846BDE8704018474FF0FF3070BD002828
:1023D00001D000F04FB8704710B500F029F9BDE802
:1023E0001040FFF7F4BF10B500F03CF9BDE8104015
:1023F000FFF7EDBF10B5002102A000F0FFF80120AB
:1024000010BD00005349475056464E3A2050757251
:1024100065207669727475616C20666E2063616CEC
:102420006C656400124B694600F580528A421A605E
:1024300001D8114670471960704730B50C4D6B4696
:10244000A3F580532C6822449A420FD89B1A02F5B8
:10245000805003EBD37302EB6303984200D9184614
:10246000C01D20F007020C60101B2A6030BD000068
:102470002404002001491820ABBEFEE7260002001C
:1024800010B500F005F8001D10BD00BFB98A0000AE
:1024900000487047C086002000487047D48600205E
:1024A0002DE9F0411F46044603260168072A01F47E
:1024B000006004DB08B116A505E016A503E008B12D
:1024C00015A500E015A521F010002060A069C01E30
:1024D000A0610FB1401EA0612046FEF779FC4FB10C
:1024E000D4E9012138469047206A401C2062C01C74
:1024F000206206E0206AFAE7D4E9012115F8010B11
:102500009047761EF8D22046FEF778FCBDE8F081B1
:102510004E414E006E616E00494E4600696E660087
:102520002DE9F047814616468AB0334878440DC8F5
:102530008DE80D0030487844801C03AC0DC884E859
:102540000D0041F69B300844372190FBF1F290FBDF
:10255000F1F5A5F1800501FB12041B3C02D5644294
:10256000012000E00020DFF890A080460027FA4418
:10257000AAF1BE0A0DE0E00709D03246684607EB33
:1025800047010AEB810100F022FB8DE8070064108F
:102590007F1C002CEFD1184F7F44AC3F18E0E807B8
:1025A00014D007EB04100DF1180A90E80E008AE829
:1025B0000E00C068F04201D198190890324606A971
:1025C00003A800F004FB03AB83E807006D10641C54
:1025D000002DE4D132466946B8F1000F03A802D0BD
:1025E00000F0E1FA01E000F0F2FAC9E90001C9F8EF
:1025F00008200AB0BDE8F087649D000070B505466C
:102600000C460A2000E06D1C00F054F835B1287823
:102610000028F8D102E0641C00F04CF814B12078D6
:102620000028F8D1BDE870400A2000F043B800004F
:1026300010B5014602A0FFF7E1FF012010BD000028
:1026400053494752545245443A2052656469726571
:1026500063743A2063616E2774206F70656E3A2050
:102660000000000010B5012805D0002103A0FFF7ED
:10267000C5FF012010BD09A1F8E7000053494752EA
:10268000544D454D3A204F7574206F662068656142
:1026900070206D656D6F7279000000003A2048650A
:1026A0006170206D656D6F727920636F72727570E5
:1026B0007465640008B569468DF800000320ABBE60
:1026C00008BD70475FEA400C08BF91F0000F4FEA69
:1026D0008C234FEAC12243EA51514FEA1C5018BFE4
:1026E00000F5F0404FEA300018BF41F000415FEACA
:1026F0006C5C00F02980BCF1FF3F08BF40F08040D7
:102700007047130C06BF12044FF0100C4FF0000C72
:10271000130E04BF12020CF1080C130F04BF1201B8
:102720000CF1040C930F04BF92000CF1020CD30FB8
:1027300004BF52000CF1010C11464FF00002A0F151
:102740001F00A0EB0C00704711F0004F08BF70474E
:1027500031F000413FF4D5AF0B0C06BF09044FF038
:10276000100C4FF0000C0B0E04BF09020CF1080C0A
:102770000B0F04BF09010CF1040C8B0F04BF89007F
:102780000CF1020CCB0F04BF49000CF1010CCCF191
:102790002003A0EB0C0022FA03F302FA0CF241EA48
:1027A000030100F10100704720F07F4C80EA030034
:1027B00023F07F47ACEB070303F57C5300F00040A8
:1027C00003F1FF032DE980494FEA154B09B44FEAA5
:1027D000144325EA0B4E24EA03480FF2042606EBC5
:1027E000132749083E785FEA320203FB0667C7F504
:1027F000000707FB06F64FEA54374FEAD64606F1C4
:10280000020607FB066CCCF1005C4FEA1C472CEA81
:10281000074C07FB06F40CFB06F504EB15464FEAE4
:10282000961634BF00204FF000404FEAD13706FB28
:1028300007FC4FEA1C4C0CFB0BF7D21B03FB0CF7FD
:1028400061EB07010CFB0EF7B0EB074072EB174290
:102850000CFB08F734BFA2EB0742B2EB074261EB77
:1028600017414FEA0C444FEA910706FB07FC4FEA79
:102870001C4C0CFB0BF7B0EBC74072EB573203FB61
:102880000CF734BFA2EBC742B2EBC74261EB573142
:102890000CFB0EF7B0EBC70072EB57720CFB08F79E
:1028A00034BFA2EBC702B2EBC70261EB5771039FC3
:1028B0004FEA816141EA921104EBCC044FEAD1372F
:1028C0004FEA826206FB07FC42EA90124FEA806000
:1028D0004FEA1C4C0CFB0BF7D21B03FB0CF761EB14
:1028E00007010CFB0EF7B0EB074072EB17420CFB35
:1028F00008F734BFA2EB0742B2EB074261EB174186
:102900004FEA8C554FEA910704EB9C2406FB07FC29
:102910004FEA1C4C0CFB0BF7B0EBC74072EB573285
:1029200003FB0CF734BFA2EBC742B2EBC74261EB2B
:1029300057310CFB0EF7B0EBC70072EB57720CFB74
:1029400008F734BFA2EBC702B2EBC70261EB5771C5
:1029500015EB4C254FEA816141EA92114FEA826200
:102960004FEAD13742EA901206FB07FC44F100041B
:102970004FEA80604FEA1C4C0CFB0BF7D21B03FBA9
:102980000CF761EB07010CFB0EF7B0EB074072EBA5
:1029900017420CFB08F734BFA2EB0742B2EB074229
:1029A00061EB174115EB1C154FEA813141EA924169
:1029B0004FEA823242EA90424FEA80304FEA0C7688
:1029C00044F1000448EA03434EEA0B484FF0000E7E
:1029D000B2EB080C71EB030724BF624639464EEB9D
:1029E0000E0E4FF0000B0018524149414BEB0B0B00
:1029F000B2EB080C71EB03077BF1000B24BF6246BE
:102A000039464EEB0E0E4FF0000B00185241494173
:102A10004BEB0B0BB2EB080C71EB03077BF1000BDC
:102A200024BF624639464EEB0E0E51EA020718BF2C
:102A300046F0010616EB0E7655F1000254F1000146
:102A400003D5BDE88901BDE80088BDE88901BDE87E
:102A50000048B619524141EB0101A3F1010370474F
:102A600080807F7E7D7C7B7A7978777676757473CB
:102A7000727171706F6E6E6D6C6C6B6A6A6968688A
:102A8000676666656464636362616160605F5F5E20
:102A90005E5D5D5C5C5B5B5A5A5959585857575696
:102AA00056555555545453535252525151505050FB
:102AB0004F4F4F4E4E4D4D4D4C4C4C4B4B4B4A4A4D
:102AC0004A49494948484847474747464646454591
:102AD00045444444444343434342424242414141CA
:102AE000002B26D4770021D01CB54FEA370703B45A
:102AF0004FF010004FF010014FF000000FBCBDE888
:102B000010400BF1010BBBF1010F08BF5FEA170783
:102B100022BF12F1010211F101014FF0004143F116
:102B2000000300F0004043EA00007047F9D3570863
:102B3000DAE746EA064613F1400F4FEA16461FDD74
:102B400013F1200FDFBF16430A46002120335B42FA
:102B5000C8D0C3F1200746EA064602FA07F74FEA53
:102B6000164646EA0706C3F1200722FA03F201FAE5
:102B700007F721FA03F14FF0000342EA0702B1E739
:102B800046EA020646EA06464FEA164646EA0106C5
:102B9000BCBF46EA0646360C4FF000034FF0000279
:102BA0004FF000019EE72DE9C048934630B491E80C
:102BB000380007C831EA400C48BF34EA430C03D55B
:102BC000FFF7F2FDFFF78CFFF0BCBDE800882DE9B0
:102BD000C048934630B491E8380007C810F0804FE1
:102BE00008BF13F0804F03D100F005F8FFF778FF1E
:102BF000F0BCBDE8008820F07F4780EA030023F0A6
:102C00007F4C07EB0C03A3F57C5300F00040A3F1CD
:102C1000FE0392F0000F00F0B38095F0000F00F07B
:102C200077802DE901494FEA11404FEA144621EA25
:102C3000004800FB06FC24EA064708FB06F607FBF3
:102C400008F800FB07F718EB06484CEB164C4FEA68
:102C5000124B18EB07484FEA15464CEB174022EA97
:102C60000B4E0BFB06FC25EA06470EFB06F607FBA0
:102C70000EFE0BFB07F71EEB064E4CEB164C4FF00F
:102C800000061EEB074E4CEB174B18EB0B0840F100
:102C9000000018EB0E0B58EB000840F100008F1AF3
:102CA0004FF000013CBFC943661B14BFB5EB040CD9
:102CB00000213CBFC943F61B4FEA17444EEA8E0E73
:102CC00027EA04454FEA1C4704FB07622CEA074C3D
:102CD00005FB07F70CFB05F604FB0CFC16EB07469F
:102CE00042EB174216EB0C4642EB1C421BEB06066E
:102CF00058EB0202414146EA9E0601D5BDE8018932
:102D0000B619524141EB0101A3F10103BDE801896C
:102D10004FEA14454FEA114724EA054621EA074CD9
:102D200005FB07F406FB07F70CFB06F105FB0CFCA3
:102D300011EB074144EB17444FEA124711EB0C41EA
:102D400044EB1C4422EA074C05FB07F206FB07F79D
:102D50000CFB06F605FB0CFC16EB074642EB174294
:102D600016EB0C4642EB1C456A1854F1000148BFB3
:102D70007047B619524141EB0101A3F101037047BD
:102D800095F0000F37D04FEA11424FEA144721EA7D
:102D9000024624EA074C02FB07F106FB07F70CFB8F
:102DA00006F402FB0CFC14EB074441EB17414FEA1D
:102DB000154714EB0C4441EB1C4125EA074C02FB80
:102DC00007F506FB07F70CFB06F602FB0CFC16EBFF
:102DD000074645EB174516EB0C4645EB1C4212190E
:102DE00051F1000148BF7047B619524141EB010152
:102DF000A3F1010370474FEA14454FEA114724EA53
:102E0000054621EA074C05FB07F106FB07F70CFB1B
:102E100006F24FF0000605FB0CFC12EB074241EBFB
:102E2000174112EB0C4251EB1C4148BF70479218FE
:102E300041EB0101A3F10103704710B507F079FBE5
:102E400007F076FBBDE8104007F05CBA0021016096
:102E5000C1607047FEE7000010B50146034802F06C
:102E600011F8024801F0EEFF002010BDB809002063
:102E70000A46094910B5D1F81812D1F814120029E0
:102E80001CBF012010BD0146034802F001F8BDE857
:102E90001040014802F004B8B8090020704790F8CB
:102EA0003510022903D0802141650120704705219A
:102EB00080F835100068016821F0010101600020F0
:102EC000704731B507F0ECFF044607F0E9FF0099C1
:102ED000001B01EB4102C2EBC111B0EBC10FF4D3F7
:102EE00038BD00002DE9F84F00227A4EDFF8E8E106
:102EF00001274FF0030A4FF00F0800BF0B6807FAD5
:102F000002F42340A3427DD1D1F804C0BCF1020FEA
:102F100018BFBCF1120F15D14FEAD20C00EB8C0593
:102F2000D5F820904FEA427C4FEADC6C08FA0CFBA3
:102F300029EA0B09D1F810B00BFA0CFC4CEA090C89
:102F4000C5F820C0D0F800904FEA420C91F804B0C8
:102F50000AFA0CF50BF0030B29EA05090BFA0CFB36
:102F60004BEA0909C0F80090D1F80490B9F1010FBB
:102F700018BFB9F1020F05D0B9F1110F18BFB9F19F
:102F8000120F18D1D0F80890D1F80CB029EA050931
:102F90000BFA0CFB4BEA0909C0F80890D0F8049032
:102FA00029EA040491F80490C9F3001909FA02F916
:102FB00049EA04044460C468AC438D6805FA0CFC1B
:102FC0004CEA040CC0F80CC0D1F804C01CF0805FBF
:102FD00079D0D6F800C04CF4804CC6F800C0D6F8C2
:102FE00000C00CF4804CCDF800C022F0030C0CF1B2
:102FF000804C0CF5983CDCF808589407240F08FA2C
:1030000004F900E05FE025EA0905A0F18049B9F57F
:10301000003920D0A0F18049B9F5013908BF4FF03F
:10302000010918D0A0F18049B9F5023908BF4FF065
:10303000020910D0A0F18049B9F5033908BF4FF05B
:10304000030908D0A0F18049B9F504390CBF4FF04D
:1030500004094FF0050909FA04F42C43CCF8084898
:10306000DEF800C04C682CEA030C14F4803F18BF53
:103070004CEA030CCEF800C0184CD4F800C04D68E0
:103080002CEA030C15F4003F18BF4CEA030CC4F8FB
:1030900000C0134CD4F800C04D682CEA030C15F4A2
:1030A000801F18BF4CEA030CC4F800C00D4CD4F8C4
:1030B00000C04D682CEA030C15F4001F18BF4CEA41
:1030C000030CC4F800C0521C102AFFF417AFBDE86F
:1030D000F88F000044380240003C0140043C0140AD
:1030E000083C01400C3C014001480068704700006A
:1030F000E801002002480168491C01607047000097
:10310000E80100200B4810B5016841F4007101602E
:10311000016841F480610160016841F480710160DF
:10312000032000F0A3F80F2000F006F800F05EF88E
:10313000002010BD003C024038B52348002501683E
:1031400041F008010160006800F0080000901F488D
:10315000016841F008010160016821F00801016087
:1031600001F0F6FB1B4C1A481C492060681EE06009
:10317000194800682561B0FBF1F0401EC4E9010563
:103180002046656101F0FEF81549322006F030FB5B
:1031900014494FF48020C1F800010021204601F0BD
:1031A0000DF90421204601F009F92068416A0E4A10
:1031B000116001F57A7181632068C16841F00401F2
:1031C000C160002038BD0000403802402038024075
:1031D000000C0040280400209801002040420F000D
:1031E000E5AD000804E000E094010020704700F025
:1031F0001F01012202FA01F14009800000F1E020E4
:10320000C0F8001170470000174B10B41B68C3F3DF
:103210000223C3F1070CBCF1040F88BF4FF0040C6C
:103220001C1D072C34BF0023DB1E012404FA0CFCF8
:10323000ACF1010C0CEA0101994004FA03F35B1EA6
:103240001A40114300284FEA0111A1BF00F1E0200C
:1032500080F8001410BC704700F00F0000F1E0206F
:1032600080F8141D10BC70470CED00E0074900F019
:1032700007000A684FF6FF031A4042EA002040F0B8
:10328000FD7040F080600860704700000CED00E0C9
:10329000006841620020704770B400680023D0F8D5
:1032A00024C0002904BF4CEA0241816218D0846A1C
:1032B0000CEB144C4C1E18BF4FF4827509D000BFA4
:1032C00005EB830686595B1CDBB20CEB164C9C426B
:1032D000F6D84FF4807303EB81014CEA024242506E
:1032E00070BC00207047D0F8B40301F024BFC1EBDC
:1032F000C10200EB8202D0F8B403526C01F08EBE22
:103300002DE9F0410E46074672B601293BD1264C05
:10331000244D4022206805F69C0105EB8010001D1D
:10332000FDF70FFC69790422A87902EB012143180B
:1033300062680021012005F5805C012A18D12A79F4
:10334000612A18BF782A0BD0632A18BF682A07D0D1
:10335000792A18BF7A2A03D0662A18BF622A07D1B1
:103360006160402B04DD5A1E00EBA212CCF88821CC
:103370002268521C2260DCF88821521ECCF8882179
:1033800008BFC4E90010C6EBC60007EB8000314659
:10339000D0F8E821D7F8B40301F098FE62B6BDE892
:1033A000F0810000C465002044030020D0F8B4037D
:1033B00001F0C3BE10B5044601F07F03C3EBC300A8
:1033C0000A4611F0800F04EB800014BF00F13801B1
:1033D00000F5EE710B70D009487094F88003012855
:1033E00004BF022010BD012084F88003206802F091
:1033F0006DFA002084F8800310BD70B504460A46BB
:1034000011F0800F01F07F0014BFC0EBC001C2EBD0
:10341000C20104EB810114BF383101F5EE710025C2
:103420008D700870D009487094F88003012804BF9B
:10343000022070BD012084F88003206802F027FC80
:1034400084F88053002070BD01F07F01C1EBC10101
:1034500000EB8100B0F8F40180B2704770B504460B
:103460008C4611F0800F01F07F00C0EBC00104EB2F
:10347000810114BF383101F5EE7108705FEADC1C80
:1034800081F801C08A60CB7018BFC8800025022B6C
:1034900008BF0D7194F88003012804BF022070BD9D
:1034A000012084F88003206802F054F9284684F84B
:1034B000805370BD70B504468C4601F07F00C0EBB0
:1034C000C00104EB81010025C1F8E821C1E97C3588
:1034D00081F8DD5181F8DC01206901F5EE710128E8
:1034E00008BF0A6194F88003012804BF022070BD60
:1034F000012084F88003227C20681CF07F0F05D017
:1035000002F02AFC84F88053002070BD02F0F4FA27
:10351000F8E770B504460D4611F0800F01F07F000A
:1035200014BFC0EBC001C5EBC50104EB810114BFA2
:10353000383101F5EE7101228A700870E80948708F
:1035400094F88003012804BF022070BD84F8802312
:10355000206802F0CEFB15F07F0F05D1217C04F529
:103560006172206802F074FB002084F8800370BD53
:1035700070B504468C4601F07F00C0EBC00104EB3F
:10358000810100254A64C1E91335012381F83930EE
:1035900001F8380F2069012808BF0A6194F88003F8
:1035A000012804BF022070BD84F88033227C20688B
:1035B0001CF07F0F06D002F0CFFB00BF84F88053D1
:1035C000002070BD02F098FAF8E700002DE9F04FF6
:1035D0000568044683B00026284602F02EFD002828
:1035E0001CBF03B0BDE8F08F206802F04FFD00283B
:1035F00004BF03B0BDE8F08F206802F047FD10F073
:10360000020F04D02068416901F002014161206885
:1036100002F03CFD10F4002F4FF008084FF0100AA4
:103620004FF0010B4ED0206802F012FD070049D088
:1036300017F0010F43D0F1B2206802F01FFD814660
:1036400010F0010F2AD005EB4611C1F808BB206924
:10365000012811D1C6EBC60004EB8000D1F8101B85
:10366000D0F8E421C1F31201511AC0F8F411D0F8D6
:10367000E8111144C0F8E811F1B22046FFF740FE0E
:103680002069012802BF002ED4F8F001002805D1DE
:1036900004F561720121206802F0DAFA19F0080FCE
:1036A00006D0204600F0F0FA05EB4610C0F8088B73
:1036B00019F0100F1CBF05EB4610C0F808AB761CC4
:1036C0007F08B5D1206802F0E1FC10F4802F75D09E
:1036D000206802F0B6FC5FEA00094FF000066DD0EA
:1036E00019F0010F6BD0F1B2206802F0B8FC074668
:1036F00010F0010F28D00121D5F8342801FA06F086
:1037000022EA0000C5F8340805EB4610C0F8081995
:103710002069012807D1C6EBC60004EB8000D0E980
:10372000102111444164F1B22046FFF7E0FD206909
:10373000012802BF002EE06C002805D104F561725B
:103740000121206802F084FA17F0080F04D005EB7D
:1037500046110820C1F8080917F0100F04D005EB36
:1037600046111020C1F8080917F0400F04D005EBEE
:1037700046114020C1F8080917F0020F04D005EBEC
:1037800046110220C1F8080917F0800F49D02068BF
:103790000190C6EBC60004EB800000F13808D8E9C0
:1037A0000501471AD8F80800874288BF0746F81C69
:1037B0004FEA900A019800EB461B1DE036E030E02E
:1037C000471AD8F80800B84238BF0746F81C4FEA35
:1037D000900A207C0090BBB2F2B2D8F80C1001988D
:1037E00002F09EFCD8F80C003844C8F80C00D8F859
:1037F00018003844C8F81800DBF8180980B25045A2
:1038000084BFD8E90501884201D90028D8D147B939
:1038100001990120B040D1F8341881430198C0F8D3
:103820003418761C5FEA59097FF45AAF206802F019
:103830002DFC10F0004F0DD0D5F8040820F0010049
:10384000C5F80408204600F0F2F92068416901F04B
:1038500000414161206802F019FC10F4006F0CD0A7
:10386000D5F8080810F0010F1CBF204600F028FA18
:103870002068416901F400614161206802F006FCA2
:1038800010F4805F5CD0D5F8040820F00100C5F882
:1038900004080021206802F09FFB6068D0B110F09E
:1038A00001004FF0FF021CBFC5F80829C5F8082B1E
:1038B000616881420ED900BF05EB4011C1F80829AB
:1038C000C1F8082BC1F82829C1F8282B6168801C91
:1038D0008142F1D84FF0FF30C5F81808D5F81C0820
:1038E00040F00110C5F81C08206B60B1D5F88408C1
:1038F00040F00B00C5F88408D5F8440840F00B00F0
:10390000C5F844080BE0D5F8140840F00B00C5F8E2
:103910001408D5F8100840F00B00C5F81008D5F8C9
:10392000000820F4FE60C5F80008217C04F56172EF
:10393000206802F08DF92068416901F480514161ED
:10394000206802F0A3FB10F4005F1CD0206801F097
:1039500049FF2068C16821F47051C160206802F0FD
:103960004FFB60B30320E060402060612068C168C5
:1039700041F4C051C160204600F048F92068416917
:1039800001F400514161206802F080FB10F0100F3B
:1039900041D02068816921F010018161D5F8208033
:1039A00008F00F00C0EBC00004EB800000F5EE77DC
:1039B000C8F3434002280CD006281CD026E0002083
:1039C000E0604FF4007060612068C16841F41051FC
:1039D000D0E747F6F07018EA000F17D0C8F30A12C4
:1039E00090462846F96802F055FBF8684044F860B4
:1039F000B869404409E0082204F56171284602F0E4
:103A000049FBB869C8F30A110844B86120688169A4
:103A100041F010018161206802F038FB10F0080FBE
:103A200007D0204600F008F92068416901F008013C
:103A30004161206802F02AFB10F4801F08D0F1B227
:103A4000204600F03AF82068416901F48011416194
:103A5000206802F01BFB10F4001F08D0F1B22046D2
:103A600000F02FF82068416901F4001141612068DD
:103A700002F00CFB10F0804F07D02046FFF733FC1C
:103A80002068416901F080414161206802F0FEFA3E
:103A900010F0040F04BF03B0BDE8F08F2068456844
:103AA00015F0040F1CBF2046FFF780FC206841681A
:103AB0002943416003B0BDE8F08FD0F8B40301F0B2
:103AC0008FBBD0F8B40301F08DBB002804BF0120E8
:103AD00070472DE9F04104468AB0032084F8810341
:103AE000204600F05DF8206802F000F81034B4E8D9
:103AF000EF108DE8EF1074E80C01CDE9080194E8AF
:103B00000F0001F089FE0021206802F0E0FA002297
:103B10000F2101251046C2EBC20304EB8303491EAB
:103B200083F8395083F83820DA8783F83B0018642B
:103B30005864D86402F10102EDD14FF48273C1EBF5
:103B4000C10204EB820203EB810C82F8DD0182F8F2
:103B5000DC11D18782F8DF01C2F8E401C2F8E80184
:103B6000C2F8F001226842F80C00491C0F29E6D384
:103B700004F1100090E8CF118DE8CF11D4E90C01C9
:103B8000CDE9080194E80F0001F0F6FE84F88153B6
:103B9000206801F0E5FE0AB00020BDE8F0810000D9
:103BA00000B5006887B0B0F1A04F1CBF07B000BDE2
:103BB0004FF4C0500090022001900020029003209A
:103BC00003900A20049069460D48FFF78BF90D48D1
:103BD000016841F0800101600B48016841F48041B7
:103BE00001600068002200F48040059011464320E7
:103BF000FFF70AFB4320FFF7FAFA07B000BD000009
:103C000000000240343802404438024010B50446F7
:103C1000C0680121002808BF0021D4F8B40301F0D6
:103C200026FBD4F8B403BDE8104001F0EEBAD0F89A
:103C3000B40301F009BB000010B5044604A1084814
:103C400005F0ECF8D4F8B403BDE8104001F002BB75
:103C5000736F6620696E746572727570740A000005
:103C60005C50002010B5044690F88003012804BF82
:103C7000022010BD012084F88003206802F03EFA83
:103C8000002084F8800310BDD0F8B42300F56171E2
:103C9000104601F0F6BA10B5044690F880030128EA
:103CA00004BF022010BD012084F88003206801F0C9
:103CB0004BFE206802F08AF9002084F8800310BDD2
:103CC00010B50446D0F8B40301F018FB2068D0F812
:103CD000001E41F00101C0F8001E206A002808BF44
:103CE00010BD0348016841F00601016010BD0000ED
:103CF00010ED00E02DE9F05F5F4F06468946386819
:103D000001F0FF0A00F00F00484506D287F800A036
:103D1000386800F00F00484540D13078574D10F01A
:103D2000020F05D02868B16820F0F0000843286031
:103D3000307810F0010F65D070685149012825D006
:103D4000022818BF0328096825D011F0020F65D09A
:103D5000296821F0030108432860FFF7C5F90446EC
:103D6000706841F28838012819D0022827D003282A
:103D7000286834D010F00C0F44D000BFFFF7B4F91E
:103D8000001B40453AD90320BDE8F09F096811F4B3
:103D9000003FDDD142E011F0007FD9D13EE028683C
:103DA00000F00C0004282DD0FFF79EF9001B4045C1
:103DB000E9D8286800F00C000428F5D122E0286832
:103DC00000F00C0008281DD0FFF78EF9001B4045BD
:103DD000D9D8286800F00C000828F5D112E04FF07F
:103DE0000C0B3BEA00000DD0FFF77EF9001B4045AD
:103DF000C9D828683BEA0000F6D103E0286810F033
:103E00000C0FBBD1386800F00F00814509D287F84C
:103E100000A0386800F00F00484502D00120BDE83E
:103E2000F09F307810F0040F05D02868F16820F476
:103E3000E05008432860307810F0080F06D028685A
:103E4000316920F4604040EAC100286000F04EF87B
:103E50002968F02292FAA2F201F0F001B2FA82F29D
:103E6000D140084A515CC840074908600F20FFF75D
:103E700063F90020BDE8F09F003C02400838024092
:103E800000380240F0B100089801002008480949B4
:103E9000006809684FF4E05292FAA2F201F4E0518E
:103EA000B2FA82F2D140044A515CC8407047000027
:103EB0009801002008380240F0B10008084809497C
:103EC000006809684FF4604292FAA2F201F460417E
:103ED000B2FA82F2D140044A515CC84070470000F7
:103EE0009801002008380240F0B10008204800681E
:103EF00010F00C011F4808BF7047DFF87CC0042990
:103F000004BF60467047082918BF704710B41B4BA8
:103F1000196801F03F02196811F4800F47F6C0716B
:103F20000BD0BCFBF2F01A680A4091FAA1F1B1FA89
:103F300081F122FA01F148430AE0B0FBF2F01A687D
:103F40000A4091FAA1F1B1FA81F122FA01F1484354
:103F500019684FF4403292FAA2F201F44031B2FAF9
:103F600082F2D140491C4900B0FBF1F010BC70470F
:103F7000083802400024F4000048E80104380240F8
:103F80002DE9F84F04460078CE4FCF4D10F0010FC9
:103F900040D0386800F00C00042809D0386800F0E0
:103FA0000C0008280DD1281D006810F4800F08D0DF
:103FB000286810F4003F2DD06068002800F07F8151
:103FC00028E0C24920790870606890B1FFF78CF84A
:103FD0000646286810F4003F1CD100BFFFF784F8A4
:103FE000801BC82800F21581286810F4003FF5D026
:103FF00010E0FFF779F80646286810F4003F09D072
:10400000FFF772F8801BC82800F20381286810F4BB
:10401000003FF5D12078DFF8B88210F0020F4FF0A2
:10402000000958D038684FF0F80A10F00C0F16D07D
:10403000386800F00C00082804D1A648006810F485
:10404000800F0CD0E06890B30120C8F80000FFF7A3
:104050004BF80646286810F0020F13D01BE02868C2
:1040600010F0020F1CBFE068012840F0288128688A
:104070009AFAAAF120F0F8022069B1FA81F1884099
:10408000104312E0FFF730F8801B02287ED8286822
:1040900010F0020FF6D028689AFAAAF220F0F80180
:1040A0002069B2FA82F290400843286013E0FFE7EB
:1040B000C8F80090FFF718F80646286810F0020FBD
:1040C00009D000BFFFF710F8801B02285ED82868CF
:1040D00010F0020FF6D1207810F0080F2ED07E4895
:1040E000DFF8F8A16169A1B101210160FEF7FCFFD1
:1040F0000646DAF8000010F0020F1FD1FEF7F4FFB9
:10410000801B022842D8DAF8000010F0020FF5D028
:1041100014E0C0F80090FEF7E7FF0646DAF800006A
:1041200010F0020F0AD000BFFEF7DEFF801B02284E
:104130006FD8DAF8000010F0020FF5D1207810F0F7
:10414000040F4FD06648016841F08051016000685B
:10415000DFF890A100F080500090DAF8000040F401
:104160008070CAF80000FEF7BFFF0646DAF80000CC
:1041700010F4807F0CD100BFFEF7B6FF801B022831
:1041800047D8DAF8000010F4807F00E041E0F3D077
:10419000554E207A3070A06841F2883B88B1FEF716
:1041A000A3FF8246306810F0020F1BD1FEF79CFF80
:1041B000A0EB0A0058452CD8306810F0020FF5D05B
:1041C00010E0FEF791FF8246306810F0020F09D030
:1041D000FEF78AFFA0EB0A0058451AD8306810F0A5
:1041E000020FF5D1A069E8B3396801F00C01082984
:1041F00065D00228C8F860900ED0FEF775FF04461F
:10420000286810F0007F57D0FEF76EFF001B0228D1
:104210004ED90320BDE8F88FFEF766FF06462868F2
:1042200010F0007F09D000BFFEF75EFF801B022860
:10423000EFD8286810F0007FF6D1D4E907010143D8
:1042400047F6C07292FAA2F2606AB2FA82F2904025
:10425000A26A4FF0FF3303EB52024FF4403393FA5C
:10426000A3F300E028E0B3FA83F39A401043084335
:104270004FF0706292FAA2F2E16AB2FA82F29140D1
:104280000143144801600120C8F86000FEF72CFFCC
:104290000446286810F0007F0ED100BFFEF724FF0F
:1042A000001B0228B5D8286810F0007FF6D003E084
:1042B000286810F0007FA7D10020BDE8F88F01200A
:1042C000BDE8F88F0838024000380240023802404A
:1042D0000000474204380240800E474274380240D2
:1042E000403802400070004070380240002804BF8F
:1042F0000120704770B5044690F85100002520B9A0
:1043000084F85050204600F037F8022084F851001D
:104310002068016821F040010160D4E901010843EF
:10432000D4E903121143084361690843218B01F466
:1043300000710843E1690843216A0843A16A084300
:1043400021680860A069042101EA1040616A0843FD
:1043500021684860A06AB0F5005F02D12168E06A78
:1043600008612068C16921F40061C16165650120AF
:1043700084F85100002070BD7047704710B5FFF7FA
:10438000FCFF10BD002804BF0120704710B5044693
:1043900090F8390028B9002084F83800204600F051
:1043A0000CF8022084F83900211D206800F056FB2B
:1043B000012084F83900002010BD704702680123F5
:1043C00003FA01F1136A8B431362136A19431162F2
:1043D0000168A1F18042B2F5803203D14A6C42F407
:1043E00000424A640068016841F001010160002058
:1043F0007047006881B0016811F0010F04BF0168C7
:1044000011F0020F03D04068009001B070470168BE
:1044100011F0040F04BF016811F0080FF3D101B0CF
:104420007047000070B5016804460868CA684B69A7
:1044300010F00F0F4FF0200543D040F2011C13EA9B
:104440000C0F00F0F18010F0010F18BF12F4807F04
:1044500005D0D4F83CC04CF0010CC4F83CC010F0BE
:10446000040F18BF13F0010F05D0D4F83CC04CF076
:10447000020CC4F83CC010F0020F18BF13F0010F7B
:1044800005D0D4F83CC04CF0040CC4F83CC010F08B
:10449000080F18BF13F0010F03D0E36B43F00803BC
:1044A000E363E36B002B08BF70BD10F0200F18BF53
:1044B00012F0200F72D094F83A202046222A44D0DD
:1044C0007CE010F0200F18BF12F0200F67D094F896
:1044D0003A202046222A18BF70BD8268B2F5805F5C
:1044E0001ED002695AB3496801F07F02816A4B1CF1
:1044F00083620A70C18D491E0904090CC18518BF69
:1045000070BD0168CA6822F49072CA6001684A6985
:1045100022F001024A6180F83A5000F0FDF870BDC7
:104520000369826A4968002B14BFC9B2C1F308014C
:104530001180816A14BF491C891C8162DAE74A68CC
:10454000816A4B1C83620A70D4E78268B2F5805F8F
:104550000FD00269E2B1496801F07F02816A4B1C09
:1045600083620A70C18D491E0904090CC18525D1D9
:1045700016E00369826A4968002B14BFC9B2C1F30F
:1045800008011180816A14BF491C891C8162E9E716
:104590004A68816A4B1C83620A70E3E70EE043E0DD
:1045A0000168CA6822F49072CA6001684A6922F000
:1045B00001024A6180F83A5000F0AEF82068416983
:1045C000E26BC1F3801102F00802114326D0C168EA
:1045D00021F49071C1602068416921F001014161BD
:1045E00084F83A502068416911F0400F12D04169B7
:1045F00021F040014161606B60B12D490165606B44
:10460000FEF74DFC002808BF70BD606B016DBDE872
:10461000704008472046FFF7ECFE70BD2046FFF7CC
:10462000E8FE0020E06370BD10F0800F18BF12F0AC
:10463000800F2CD094F83900212818BF70BDA068D5
:10464000B0F5805F206A16D0411C21622168007895
:104650004860E08C401E0004000CE08418BF70BD70
:104660002068C16821F08001C1602068C16841F004
:104670004001C16070BD0088C0F308004860206937
:104680000028206A14BF401C801C2062E1E710F063
:10469000400F14BF12F0400F70BD2046CA6822F0D0
:1046A0004002CA6084F8395000F037F870BD00004D
:1046B000F14A0008002804BF0120704770B5044685
:1046C00090F83900002520B984F83850204600F0D1
:1046D00022F8242084F839002068C16821F40051B0
:1046E000C160204600F00CFA2068016921F4904175
:1046F00001612068416921F02A0141612068C16897
:1047000041F40051C160E563202084F8390084F849
:104710003A00002070BD704770470068016811F0D2
:10472000400F1CBF6FF0400101607047FEE70000C2
:1047300010B500220849094800F04AFC084907481A
:1047400000F000FE0749054800F094FBBDE810406A
:10475000024800F00BBE000050030020B809002002
:10476000FC02002034030020FEE770470148FEF7FA
:104770002DBF0000EC4B0020704770472DE9F04F33
:10478000394D93B00024286840F080502860286894
:10479000364E00F080501190306820F4404040F4D4
:1047A0000040306030684FF0010800F44040119044
:1047B0000520CDE9008002277805CDE906704FF08D
:1047C0001009A820CDE908904FF0040A0720CDE990
:1047D0000AA06846FFF7D4FB4FF00F0B70B9A8147E
:1047E000CDE90E40CDE90CB702210CA81094FFF7DB
:1047F00081FA002804BF13B0BDE8F08F286840F0AC
:1048000080502860286800F080501190306820F4B3
:10481000404040F400403060306800F44040119067
:104820000320CDE90004CDE90389CDE90674C02059
:10483000CDF82090CDF82CA0CDE909076846FFF708
:104840009FFB78B94FF48050CDE90E40CDE90CB70D
:1048500002210CA81094FFF74DFA002804BF13B0F2
:10486000BDE8F08FFEE700004038024000700040D5
:1048700038B50024224908283CD2DFE800F0040DB6
:10488000161F283B3B311F4C086840F001000860B0
:10489000086800F001002BE01B4C086840F00200A3
:1048A0000860086800F0020022E0184C086840F038
:1048B00004000860086800F0040019E0144C08685F
:1048C00040F008000860086800F0080010E0114C93
:1048D000086840F010000860086800F0100007E069
:1048E0000D4C086840F080000860086800F0800007
:1048F000009002E009A005F009FA204638BD00004A
:10490000303802400000024000040240000802402B
:10491000000C024000100240001C024050696E6D05
:104920006170206572726F723A2077726F6E6720C5
:10493000706F7274206E756D6265722E00000000DB
:1049400010B5FEF7D7FBBDE81040FFF717BD00001C
:10495000DFF86CC030B4DCF800001A4B10F00C012A
:10496000194806D05C00042908BF046002D0082959
:104970000CD00360DCF80010144AC1F30311515C41
:10498000026822FA01F1016030BC704710490A68E0
:10499000C2F380550A68002D02F03F0214BFB4FB39
:1049A000F2F2B3FBF2F20B680968C3F388135A43BF
:1049B000C1F30141491C4900B2FBF1F10160D9E7A3
:1049C000083802400024F400980100209CB100083F
:1049D00004380240184810B5016841F470010160C4
:1049E0001648016841F001010160154A002111607B
:1049F000026822F4102222F080720260031D114A24
:104A00001A60026822F4802202600F4801600F4998
:104A1000580608600F490E480860FEF773FBFFF761
:104A2000ADFE0D48016841F008010160016821F008
:104A30000801016010BD000088ED00E00038024070
:104A400008380240103000240C38024008ED00E025
:104A50000024F400980100202038024070B402685D
:104A60001F4BDFF880C0204C204D984218BFB0F19A
:104A7000804F04D060451CBFA042A84203D14E68BD
:104A800022F070023243984218BFB0F1804F14D028
:104A9000604518BFA04210D0A8421CBFA0F1804CB6
:104AA000BCF5A03C09D0A0F1804CBCF5A23C1CBFD9
:104AB000A0F1804CBCF5A43C05D1D1F80CC022F487
:104AC00040724CEA020202608A68C2620A6882622C
:104AD000984204BF096901630121416170BC7047BC
:104AE000000001400004004000080040000C0040AD
:104AF00010B5806B0021C185C184FFF77AFC10BD21
:104B00002DE9F041044600680169E26821F4405152
:104B1000114301612068C1682369A268D4F81CC0F0
:104B20001A43636921F4037143EA0C0321F414412D
:104B30001A431143C16020684169A26921F44071A0
:104B400011434161E2693226B2F5004FBA48BB49D0
:104B5000BB4D22685DD08A4218BF824240F012816C
:104B6000FFF7ACF900EBC00101EB001061688900B0
:104B7000B0FBF1F7FFF7A2F900EBC00101EB001069
:104B800061688900B0FBF1F0A5FB001040096FF0EF
:104B90001801484307EB800006EB0010A5FB00104E
:104BA000400900F0F007FFF789F900EBC00101EBC5
:104BB000001061688900B0FBF1F0A5FB001040090E
:104BC00007EB0017FFF77AF900EBC00101EB0010CB
:104BD00061688900B0FBF1F8FFF770F900EBC001E4
:104BE00001EB001061688900B0FBF1F0A5FB00103B
:104BF00040096FF01801484308EB800006EB0010F5
:104C0000A5FB00102168C0F3431038448860BDE85C
:104C1000F0818A4218BF824259D1FFF74FF900EB69
:104C2000C00101EB001061684900B0FBF1F0A5FB89
:104C3000001040090701FFF741F900EBC00101EB4B
:104C4000001061684900B0FBF1F8FFF737F900EB9D
:104C5000C00101EB001061684900B0FBF1F0A5FB59
:104C6000001040096FF01801484308EB800006EB84
:104C7000C000A5FB0010400900F0F80007EB40075A
:104C8000FFF71CF900EBC00101EB0010616849005F
:104C9000B0FBF1F8FFF712F900EBC00101EB0010D7
:104CA00061684900B0FBF1F0A5FB001040096FF00E
:104CB0001801484308EB800006EBC000A5FB00107C
:104CC0002168C0F3421038448860BDE8F081FFF7E6
:104CD000DDF800EBC00101EB001061684900B0FB9A
:104CE000F1F0A5FB001040090701FFF7CFF800EB3A
:104CF000C00101EB001061684900B0FBF1F8FFF75B
:104D0000C5F800EBC00101EB001061684900B0FB81
:104D1000F1F0A5FB001040096FF01801484308EBC3
:104D2000800006EBC000A5FB0010400900F0F80071
:104D300007EB4007FFF7AAF800EBC00101EB0010FA
:104D400061684900B0FBF1F8FFF7A0F800EBC00183
:104D500001EB001061684900B0FBF1F0A5FB001009
:104D600040096FF01801484308EB800006EBC000D3
:104D7000A5FB00102168C0F3421038448860BDE8EC
:104D8000F08100BFFFF782F800EBC00101EB0010DB
:104D900061688900B0FBF1F7FFF778F800EBC0011C
:104DA00001EB001061688900B0FBF1F0A5FB001079
:104DB00040096FF01801484307EB800006EB001034
:104DC000A5FB0010400900F0F007FFF75FF800EBCB
:104DD000C00101EB001061688900B0FBF1F0A5FB98
:104DE0000010400907EB0017FFF750F800EBC00177
:104DF00001EB001061688900B0FBF1F8FFF746F89D
:104E000000EBC00101EB001061688900B0FBF1F01C
:104E1000A5FB001040096FF01801484308EB800023
:104E200006EB0010A5FB00102168C0F343103844C6
:104E30008860BDE8F08100000014014000100140CE
:104E40001F85EB5110B5D0F81812002904BF0220BD
:104E500010BD027C002AD1F8042205D04023012194
:104E600000F0CCF9002010BD4FF40073012100F0D8
:104E7000C5F9F7E70246022000291CBF0020C2F84E
:104E80001C127047D0F81802C0F8041200207047B6
:104E9000D0F81802C0F81022C0F80812002070479D
:104EA00010B5D0F81812002904BF022010BDD1F8A7
:104EB0001422002A1CBF012010BD0122C1F81422B7
:104EC000B1F8102293B2D1F80822812100F01FFA24
:104ED000002010BD10B5D0F8142252689047002071
:104EE00010BD134610B50A46002100F087F90020D6
:104EF00010BD134610B50A46002100F008FA002044
:104F000010BD10B50323C0F80821C0F8F431C0F873
:104F10000C2113460A46002100F070F9002010BD54
:104F200010B505210023C0F8F4111A46194600F007
:104F300065F9002010BD10B502238261C0F8F4317C
:104F4000C26113460A46002100F0E1F9002010BDBD
:104F500010B504210023C0F8F4111A46194600F0D8
:104F6000D6F9002010BD000030B40025002804BF91
:104F700030BC7047034604784FF0000C44B100BFCA
:104F800013F8014F0CF1010C0CF0FF0C002CF7D1C1
:104F9000022303EB4C0313804B556A1C03238B54F1
:104FA0000378AA1C002B12BF002330BC704700BF3F
:104FB00010F801CB01F802C0521CD2B28B54521C23
:104FC00090F800C0D2B2BCF1000FF1D130BC7047F4
:104FD000002804BF02207047D0F81432002B1CBFF9
:104FE0000023C0F81432002918BFC0F8101210B501
:104FF000012180F8FC11027000F0AEF8002010BD15
:1050000010B5D0F82002FEF7F8F9002010BD10B559
:10501000D0F82002FEF7CEF9002010BD70B513467F
:10502000044659B1D4F814024269002A4CD094F8CD
:10503000FC01032804BF2046904745E0D4F8F41152
:10504000002504F11400022938D1D0E902218A4256
:105050000DD9511A81608AB219462046FFF749FFDF
:1050600000231A461946204600F0C8F826E040689A
:10507000B0FBF1F201FB12029AB9884211D3D4F8C5
:10508000F81188420DD2002211462046FFF731FF69
:1050900000231A4619462046C4F8F85100F0AEF82D
:1050A0000CE0D4F81402C16829B194F8FC0103287B
:1050B00004BF204688472046FFF732FF94F80002DD
:1050C000012808BF84F80052002070BD70B5154655
:1050D000044651B1D4F81402826952B394F8FC0129
:1050E000032804BF2046904723E0D4F8F41104F5C8
:1050F000827003291DD1D0E902C39C450CD9ACEBC9
:1051000003038360C068984298BF03469AB2294659
:105110002046FFF7E6FE0CE0D4F81402016929B13D
:1051200094F8FC01032804BF204688472046FFF777
:105130000FFF002070BD0020704710B5012180F8DE
:10514000FC11D0F81422017952689047002010BD5C
:10515000D0F82002FEF778B910B5017800292AD1DD
:1051600016490222C1F8B403C0F820124FF0A04043
:105170000860042048600020C1E90320C1E905025D
:10518000C861086201224862C1E90B200846FEF7A7
:105190009CFC002818BF01F049FA80210748FEF75F
:1051A00077F8402200210548FEF776F88022012199
:1051B0000248FEF771F8002010BD0000EC4B002003
:1051C00011F0800F01F07F01D0F82002C1EBC10186
:1051D00000EB810014BF90F83A0090F8DE017047B0
:1051E000002070470020704710B59C461346D0F849
:1051F00020026246FEF732F9002010BD10B5D0F84B
:105200002002FEF757F9002010BD70B500220446B9
:1052100040231146FFF7E8FF40252B46002280215E
:105220002046C4F81051FFF7DFFF0120256284F803
:10523000FC01D4F8180228B1D4F81402217942688C
:1052400020469047002070BD90F8FD1180F8FC11B9
:105250000020704710B590F8FC11032905D1D0F853
:105260001412C969002918BF8847002010BD0174B5
:105270000020704710B5D0F82002FEF7F3FC0020A4
:1052800010BD10B5044600F5027000F047F801208B
:10529000C4F8F401B4F80E02C4F8F80194F8080256
:1052A00010F01F010AD001290ED0022912D000F0FF
:1052B0008001204600F014F8002010BD04F50271B2
:1052C000204600F059F8F7E704F50271204600F097
:1052D00020FAF1E704F50271204600F095F9EBE7BA
:1052E00010B5D0F82002FEF714F9002010BD10B55B
:1052F000D0F82002FEF7CFFC002010BD90F8FC1182
:1053000080F8FD11042180F8FC110020704710B5D1
:10531000D0F82002FEF72CF9002010BD0A780270A8
:105320004A7842708A78CB7802EB032242800A796D
:105330004B7902EB032282808A79C97902EB012141
:10534000C180704702460020002914BFC2F8141221
:105350000220704710B5D0F81422022422B112683E
:105360009047002808BF0024204610BD10B5FFF765
:10537000BEFF002010BD0000F8B50D46497800269C
:105380000A2980F0F180DFE801F0FAF9EFF8EF8503
:1053900005EFE3A404466888010A082980F0C38069
:1053A000DFE801F0C1040C1EC1C1555FD4F8101232
:1053B000207C0A686946904701465DE0207C002811
:1053C000D4F8140205D0C16A684688470146022015
:1053D00051E0816A684688470146022048704BE0E8
:1053E000C0B2062874D2DFE800F0030B131B232B96
:1053F000D4F81012207C4A686946904701463BE089
:10540000D4F81012207C8A6869469047014633E040
:10541000D4F81012207CCA686946904701462BE0F8
:10542000D4F81012207C0A6969469047014623E0AF
:10543000D4F81012207C4A696946904701461BE067
:10544000D4F81012207C8A696946904707E0207CD6
:10545000002868D1D4F81402416B68468847014699
:105460000AE0207C00285ED1D4F81402016B684663
:105470008847014607204870BDF8000000281CBF7F
:10548000EA88002A57D0824288BF0246ADF8002041
:1054900020467AE00446A888002804BFE88800284F
:1054A00041D1A87800F07F0594F8FC0103283AD098
:1054B00084F8FE5129462046FFF7DCFE2046FFF720
:1054C00047FD002D0CBF0120022084F8FC0132E0D2
:1054D00029E0A9784B4D04460129297023D894F876
:1054E000FC01022802D003280ED01CE041B10320A9
:1054F000616084F8FC012046FFF72CFF022812D0DF
:105500002046FFF725FD16E0B9B160688842F7D064
:10551000C1B22046FFF7DEFC297820466160FFF724
:1055200019FF0228ECD180212046FFF7D9FE002187
:105530002046FFF7D5FE3046F8BD022084F8FC0176
:1055400020466160FFF7C6FC2046FFF701FDF2E749
:10555000E988012908D190F8FC11022910D003290B
:1055600004BF0122011D10D004468021FFF7B8FEC0
:1055700000212046FFF7B4FEDDE71BE02AE007E04C
:1055800000218160012200F10801FFF7D4FCD2E77D
:1055900090F8FC11022918BF0329E5D10121C1604F
:1055A000D0F8041200291CBF0321C160022200F1BF
:1055B0000C01EAE70446688829460128BBD1C4F8F3
:1055C0000402D4F814028268204690472046FFF770
:1055D000BFFCB0E7044690F8FC012946022818BF3A
:1055E0000328A0D148880128A5D10020C4F80402CE
:1055F000D4F814028268204690472046FFF7A8FCA2
:1056000099E700004C03002070B50D460446287849
:105610000026097900F06000202807D0687800286B
:1056200048D0012828D0032808D051E0D4F814022B
:105630002946826820469047002070BD94F8FC01FE
:10564000022802D0032805D03AE0002918BF80299B
:1056500043D13DE0688828B900291EBF8029204633
:10566000FFF73EFED4F81402294682682046904790
:105670002046FFF76DFC2BE094F8FC01022802D0D5
:10568000032805D01CE0002918BF802925D11FE080
:105690006888E8B911F07F0F08D02046FFF7B0FC0A
:1056A000D4F8140229468268204690472046FFF726
:1056B0004FFC0DE094F8FC0102280BD0032810D019
:1056C00080212046FFF70CFE00212046FFF708FE50
:1056D000304670BD11F07F0FFAD02046FFF700FE74
:1056E000F6E701F07F0011F0800F04EB001014BF0B
:1056F00000F1140500F582752046FFF761FD0028D2
:1057000018BF01200222286029462046FFF713FC1B
:10571000DEE770B5044690F8FC010D4603280ED173
:10572000287901280BD8D4F81402826820469047C3
:10573000E888002804BF2046FFF70AFC07E0802124
:105740002046FFF7CDFD00212046FFF7C9FD0020D0
:1057500070BD00004B78012291F800C002FA0CF2F3
:10576000012BD0F81C380CD043EA0242C0F81C28A8
:105770000A7800EB4210D0F8002B12F4004F20D032
:105780002CE092B21A43C0F81C280A7800EB4210B1
:10579000D0F8003913F4004F20D1D0F80039B1F817
:1057A00008C0CCF30A0C43EA0C03C978890441EA27
:1057B0008251194341F4004141F08051C0F8001971
:1057C0000CE0D0F8002B0B89C3F30A031A43C97805
:1057D000034B43EA81411143C0F8001B002070478E
:1057E00000800010D0F800196FF30A01C0F800190A
:1057F000D0F8081801F00601042905D1D0F80019E5
:1058000041F00301C0F80019D0F8041841F4807188
:10581000C0F80418002070472B4ADDF800C0029B36
:105820000999012B05D0C16841F04001C1600123F5
:105830002DE0836B23F480338363C36823F040033C
:1058400023F48403C360C36823F44013C3600129B5
:1058500003D1C16841F48011C160012102E0491CFB
:10586000914228D8036913F0004FF8D0016941F044
:1058700001010161012302E05B1C93421BD8016915
:1058800011F0010F17D0F7E75B1C934210D80169A4
:1058900011F0004FF8D0016941F0010101610121CF
:1058A00002E0491C914203D8036913F0010FF8D1BB
:1058B0004FF480318163BCF1010F03D1816841F065
:1058C0002001816000207047400D030091F801C065
:1058D00001220B7802FA03F3BCF1010FD0F83CC8A7
:1058E00018D02CEA0343C0F83C38D0F81C3891F8A3
:1058F00000C002FA0CF223EA0242C0F81C28097820
:1059000000EB4110D0F8001B21F40041C0F8001B4F
:10591000002070479BB22CEA0303C0F83C38D0F853
:105920001C3891F800C002FA0CF292B223EA02028B
:10593000C0F81C28097800EB4110D0F8001921F4B8
:105940000041C0F80019E3E710B5D0F8041821F0C1
:105950000201C0F804180320FDF7B3FA002010BDBF
:1059600010B5D0F8041841F00201C0F80418032063
:10597000FDF7A7FA002010BD2DE9F003DDE90828A6
:105980000D9F069ED0F838C04CF4002CC0F838C0EB
:105990002FB9D0F838C04CF4001CC0F838C04FF014
:1059A000000CC0F800CED0F80048C0F80048012A2A
:1059B0000CD0D0F8002842F00302C0F8002800BF45
:1059C0004FF4846202610123454A0BE0002BD0F8BA
:1059D000002818BF42F00102C0F80028F0E75B1C65
:1059E000934203D8046914F0200FF8D11023036107
:1059F000012302E05B1C934203D8046914F0100FEA
:105A0000F8D1C0F810C8C0F814C84FF0FF32C0F881
:105A10001828C0F81CC800224FF09045FF24002928
:105A200012D900BF00EB4213D3F8009919F0004FD0
:105A300014BFC3F80059C3F800C9C3F810C9C3F8AC
:105A40000849521C9142EDD80022002912D900BF0A
:105A500000EB4213D3F8009B19F0004F14BFC3F8BA
:105A6000005BC3F800CBC3F810CBC3F8084B521C43
:105A70009142EDD8D0F8101821F48071C0F81018B8
:105A8000012E0CD11749C0F83018D0F8301841F069
:105A9000030141F48031C0F83018D0F83018C0F854
:105AA00018C06FF0804141611EB9816941F0100159
:105AB000816181690C4A11438161B8F1000F03D003
:105AC000816941F008018161012F05D1816941F0AF
:105AD000040141F0804181610020BDE8F00370477E
